000000101012012BLARTFAST        SLARTY        0000043092JONES       Y
000000201022012PREFECT          FORD          0000043092SMITH       Y
000000301032012BEEBLEBROX       ZAPHOD        0000043092JONES       Y
000000401042012DENT             ARTHUR        0000043092LEWIS       Y
000000501052012ROBOT            MARVIN        0000043092LEWIS       Y
000000601062012MCMILLAN         TRICIA        0000043092SMITH       Y
000001101012012BLARTFAST        SLARTY        0000043092JONES       Y
000001201022012PREFECT          FORD          0000043092SMITH       Y
000001301032012BEEBLEBROX       ZAPHOD        0000043092JONES       Y
000001401042012DENT             ARTHUR        0000043092LEWIS       Y
000001501052012ROBOT            MARVIN        0000043092LEWIS       Y
000001601062012MCMILLAN         TRICIA        0000043092SMITH       Y
000002101012012BLARTFAST        SLARTY        0000043092JONES       Y
000002201022012PREFECT          FORD          0000043092SMITH       Y
000002301032012BEEBLEBROX       ZAPHOD        0000043092JONES       Y
000002401042012DENT             ARTHUR        0000043092LEWIS       Y
000002501052012ROBOT            MARVIN        0000043092LEWIS       Y
000002601062012MCMILLAN         TRICIA        0000043092SMITH       Y
000003101012012BLARTFAST        SLARTY        0000043092JONES       Y
000003201022012PREFECT          FORD          0000043092SMITH       Y
000003301032012BEEBLEBROX       ZAPHOD        0000043092JONES       Y
000003401042012DENT             ARTHUR        0000043092LEWIS       Y
000003501052012ROBOT            MARVIN        0000043092LEWIS       Y
000003601062012MCMILLAN         TRICIA        0000043092SMITH       Y
000004101012012BLARTFAST        SLARTY        0000043092JONES       Y
000004201022012PREFECT          FORD          0000043092SMITH       Y
000004301032012BEEBLEBROX       ZAPHOD        0000043092JONES       Y
000004401042012DENT             ARTHUR        0000043092LEWIS       Y
000004501052012ROBOT            MARVIN        0000043092LEWIS       Y
000004601062012MCMILLAN         TRICIA        0000043092SMITH       Y
